:100000000A128A11F02F00308A000408840A82073D
:10001000003446347234653471343A342034203438
:1000200020342E3420340034F0007008831203137F
:100030008800080083160313871507160C309300F9
:1000400083120313941514119410141094131413A1
:1000500094160800831203134F08D2005008D300EF
:100060005108D4000310530D540DD5005508DD0080
:10007000DD08031D42280030CC000030CD000030E8
:10008000CE0008004C08D2004D08D3004E08D40022
:100090000310530D540DD5005508E100E108031D70
:1000A00058280030CC000030CD000030CE000800D1
:1000B0000030DE000030DF000030E00089306107F2
:1000C000D2005208DD024F08D2005008D300510878
:1000D000D40010300310D40CD30CD20CFF3E031DFF
:1000E0006A285208D5005508E1004C08D2004D0896
:1000F000D3004E08D40010300310D40CD30CD20C13
:10010000FF3E031D7C285208D5005508E1068030CB
:10011000D2005208E105D017FF30CF05FF30D005DF
:100120000030D105CD17FF30CC05FF30CD050030B4
:10013000CE051830D2005208DC0001300310DE0D6D
:10014000DF0DE00DFF3E031D9E284E085102031DEA
:10015000AF284D085002031DAF284C084F02031C66
:10016000BC284C08CF024D08031C4D0FD0024E088E
:10017000031C4E0AD1025E1401300310CF0DD00DC6
:10018000D10DFF3E031DBD280130DC02031D9D285B
:100190005E08F0005F08F1006008F2005D08D20020
:1001A0005208F3006108D3005308F4000A128A15BC
:1001B000DA25700883120313CC007108CD00720891
:1001C000CE00080083160313B501B6018312031392
:1001D000660883160313A3008312031367088316AC
:1001E0000313A40083120313680883160313A500E6
:1001F0002430A0007430A1004930A2000A128A11F4
:10020000B7250A128A1183160313200883120313D9
:10021000BF0083160313210883120313C000831643
:100220000313220883120313C100BA30BC005B30F1
:10023000BD004830BE000A128A11AE240A128A118B
:10024000831203133C0883160313B20083120313B3
:100250003D0883160313B300831203133E0883166D
:100260000313B4003208A3003308A4003408A50027
:100270000030A0008030A1004030A2000A128A1194
:10028000B7250A128A118316031320088312031359
:10029000CF0083160313210883120313D0008316A3
:1002A0000313220883120313D1000030CC00003066
:1002B000CD004730CE000A128A112A200A128A1174
:1002C000831203134C08A8004D08A9004E08AA0089
:1002D0000A128A1542260A128A1183120313290868
:1002E00083160313B801B807831203132808831673
:1002F0000313B701B7073808FD007D08B5003708BC
:10030000FD007D08B6000A128A15C8230A128A1158
:10031000C0300A128A1506240A128A110A128A1596
:1003200032240A128A118316031335080A128A1519
:1003300006240A128A118316031336080A128A1534
:1003400006240A128A11B0300A128A1506240A12EB
:100350008A1110300A128A1506240A128A110030F6
:100360000A128A1506240A128A110A128A15E8232B
:100370000A128A110A128A15C12308008316031370
:10038000D400CA308400D930C6000408C7000A303F
:10039000C8004608840083130008C900C60A47083D
:1003A000840049088000C70AC80BC9291030F00032
:1003B0002730F1004508F301F3074408F201F20782
:1003C0000A128A150E250A128A1171088316031360
:1003D000D301D3077008D201D2071030F0002730C4
:1003E000F1004508F301F3074408F201F2070A128D
:1003F0008A156F240A128A11710883160313D1011A
:10040000D1077008D001D007E830F0000330F100C8
:100410005108F301F3075008F201F2070A128A1596
:100420006F240A128A11710883160313CF01CF07B4
:100430007008CE01CE07E830F0000330F10051081B
:10044000F301F3075008F201F2070A128A150E258C
:100450000A128A11710883160313D101D10770089B
:10046000D001D0076430F0000030F1004F08F301F4
:10047000F3074E08F201F2070A128A156F240A12D6
:100480008A11710883160313CD01CD077008CC01C2
:10049000CC076430F0000030F1004F08F301F3079F
:1004A0004E08F201F2070A128A150E250A128A1165
:1004B000710883160313CF01CF077008CE01CE0752
:1004C0000A30F0000030F1004D08F301F3074C084A
:1004D000F201F2070A128A156F240A128A117108B2
:1004E00083160313CB01CB077008CA01CA070A3071
:1004F000F0000030F1004D08F301F3074C08F20161
:10050000F2070A128A150E250A128A11710883163B
:100510000313CD01CD077008CC01CC07063054027F
:10052000031C962A0530C6004608D400D4080319D7
:1005300008005408C6004607FE3ECA3E84008313E6
:100540000008303E0A128A15F2230A128A1101307D
:1005500083160313D402962A003083160313C700B0
:100560000030C8000030C900CA01CB010A128A114C
:10057000D0260A128A118312031366088316031306
:10058000C70083120313670883160313C80083127E
:100590000313680883160313C9004708A30048081B
:1005A000A4004908A5002430A0007430A1004930FF
:1005B000A2000A128A11B7250A128A1183160313A0
:1005C000200883120313BF0083160313210883122C
:1005D0000313C00083160313220883120313C10000
:1005E000BA30BC005B30BD004830BE000A128A1130
:1005F000AE240A128A11831203133C0883160313D4
:10060000C400831203133D0883160313C50083122D
:1006100003133E0883160313C6004408A3004508CD
:10062000A4004608A5000030A0008030A1004030A2
:10063000A2000A128A11B7250A128A11831603131F
:10064000200883120313CF0083160313210883129B
:100650000313D00083160313220883120313D1005F
:100660000030CC000030CD004730CE000A128A1195
:100670002A200A128A11831203134C08BF004D0866
:10068000C0004E08C1000030BC008030BD003F30CB
:10069000BE000A128A11AE240A128A1183120313B1
:1006A0003C08A8003D08A9003E08AA000A128A15C5
:1006B00042260A128A118312031329088316031390
:1006C000CD01CD0783120313280883160313CC0131
:1006D000CC074D08FD007D08CA004C08FD007D08D0
:1006E000CB000A128A15C8230A128A11C0300A12D6
:1006F0008A1506240A128A110A128A1532240A124D
:100700008A11831603134A08403E0A128A150624EA
:100710000A128A11831603134B080A128A1506243B
:100720000A128A11D0300A128A1506240A128A1176
:100730001F300A128A1506240A128A1100300A1282
:100740008A1506240A128A110A128A15E8230A1247
:100750008A110A128A15C123080000308316031378
:10076000C7000030C8000030C9000A128A11D02624
:100770000A128A1183120313660883160313C70033
:1007800083120313670883160313C800831203132D
:10079000680883160313C900CA01CB014708A300E8
:1007A0004808A4004908A5002430A0007430A10026
:1007B0004930A2000A128A11B7250A128A1183163B
:1007C0000313200883120313BF00831603132108A9
:1007D00083120313C000831603132208831203132A
:1007E000C100BA30BC005B30BD004830BE000A1208
:1007F0008A11AE240A128A11831203133C0883164D
:100800000313C400831203133D0883160313C500AA
:10081000831203133E0883160313C6004408A30083
:100820004508A4004608A5000030A0008030A100C3
:100830004030A2000A128A11B7250A128A118316C3
:100840000313200883120313CF0083160313210818
:1008500083120313D0008316031322088312031399
:10086000D1000030CC000030CD004730CE000A125D
:100870008A112A200A128A11831203134C08BF001E
:100880004D08C0004E08C1000030BC008030BD00E3
:100890003F30BE000A128A11AE240A128A11831256
:1008A00003133C08A8003D08A9003E08AA000A124C
:1008B0008A1542260A128A11831203132908831605
:1008C0000313CD01CD0783120313280883160313E6
:1008D000CC01CC074D08FD007D08CA004C08FD0086
:1008E0007D08CB000A128A15C8230A128A11C0306B
:1008F0000A128A1506240A128A110A128A1532244B
:100900000A128A11831603134A08403E0A128A15F6
:1009100006240A128A11831603134B080A128A1539
:1009200006240A128A1150300A128A1506240A1265
:100930008A111F300A128A1506240A128A11003001
:100940000A128A1506240A128A110A128A15E82345
:100950000A128A110A128A15C1230800831203138E
:100960003C08C2003D08C3003E08C4000310430D0C
:10097000440DC5004508CB003F08C2004008C30035
:100980004108C4000310430D440DC5004508CA00CA
:100990004B080319D72C4A084B020318DE2C4B03D3
:1009A000FF3A4A07C20019304202031CDE2C3F08FE
:1009B000BC004008BD004108BE0008004A080319F9
:1009C00008004B084A020318ED2C4A03FF3A4B0774
:1009D000C20019304202031808000630C200420863
:1009E000C900BE1BC917C11B4917BD17FF30BC0585
:1009F000FF30BD050030BE05C017FF30BF05FF301A
:100A0000C0050030C1054A084B0203182D2D0130E6
:100A10000310BF0DC00DC10DFF3E031D082D013099
:100A2000CA024A084B060319282D0130C902490899
:100A300007390319282D072D01300310BE0CBD0CFA
:100A4000BC0CFF3E031D1D2D0130C2004208CB0728
:100A50004B084A060319562D1C2D4B084A02031851
:100A6000562D01300310BC0DBD0DBE0DFF3E031D04
:100A7000322D0130CB024A084B060319522D0130AA
:100A8000C902490807390319522D312D01300310CD
:100A9000C10CC00CBF0CFF3E031D472D0130C2002E
:100AA0004208CA074B084A06031D462DC91F682D78
:100AB000FF30BC06FF30BD06FF30BE060130BC076C
:100AC000003003180130BD07003003180130BE07A5
:100AD000491F7A2DFF30BF06FF30C006FF30C10628
:100AE0000130BF07003003180130C0070030031881
:100AF0000130C107C9013C08BF073D0803110318B5
:100B00003D0A031DC0073E08031103183E0A031DDA
:100B1000C107C11F9D2DFF30BF06FF30C006FF304B
:100B2000C1060130BF07003003180130C007003094
:100B300003180130C107C901C90A3F08F000400885
:100B4000F1004108F2004B08C2004208F3004908D6
:100B5000C3004308F4000A128A15DA2570088312CC
:100B60000313BC007108BD007208BE0008008316A4
:100B70000313200883120313E200831603132108D2
:100B800083120313E3008316031322088312031353
:100B9000E4000310630D640DE5006508831603137C
:100BA000AC00AC08031DDB2D0030A0000030A1001C
:100BB0000030A2000800230883120313E20083160A
:100BC0000313240883120313E30083160313250879
:100BD00083120313E4000310630D640DE500650840
:100BE00083160313B100B108031DFD2D0030A000D2
:100BF0000030A1000030A200080031087B3E8312C3
:100C00000313E200620883160313AC072008831263
:100C10000313E20083160313210883120313E30076
:100C200083160313220883120313E4001030031009
:100C3000E40CE30CE20CFF3E031D172E6208E500F6
:100C4000650883160313B100230883120313E2001F
:100C500083160313240883120313E300831603137C
:100C6000250883120313E40010300310E40CE30C96
:100C7000E20CFF3E031D352E6208E5006508831671
:100C80000313B106803083120313E2006208831657
:100C90000313B105A117A417FF30A305FF30A40566
:100CA0000030A5050030AD000030AE000030AF00D0
:100CB000073083120313E200620883160313B000A7
:100CC000201C702E2308AD07240803110318240AE2
:100CD000031DAE07250803110318250A031DAF07DE
:100CE00001300310A20CA10CA00CFF3E031D712EBD
:100CF00001300310A30DA40DA50DFF3E031D792E99
:100D00000130B002031D602E093083120313E2008C
:100D1000620883160313B000201C9C2E2308AD0725
:100D2000240803110318240A031DAE072508031124
:100D30000318250A031DAF0701300310A20CA10CF4
:100D4000A00CFF3E031D9D2E01300310AF0CAE0C16
:100D5000AD0CFF3E031DA52E0130B002031D8C2EED
:100D60002D08F0002E08F1002F08F2002C08831245
:100D70000313E2006208F3008316031331088312A1
:100D80000313E3006308F4000A128A15DA257008D9
:100D900083160313A0007108A1007208A2000800C6
:100DA000003083160313C0000030C1000030C200C1
:100DB0000A128A111A200A128A110A128A15C823E5
:100DC0000A128A11C1300A128A1506240A128A11DF
:100DD0000A128A1532240A128A1183160313C301D8
:100DE000053043020318112F0A128A15FC230A1238
:100DF0008A1183160313B2004308BB3E84003208F5
:100E0000831380000A128A1532240A128A110130D3
:100E100083160313B2003208C30705304302031CD4
:100E2000F42E0A128A15E8230A128A110A128A1568
:100E3000C1230A128A11183083160313B2009130AD
:100E4000B300FC30B400FF30B50000308312031350
:100E5000A3000030A2000030A1000430A0003F3009
:100E6000831603133B05B6004008B7003608B800E8
:100E70000030B81BFF30B900BA000F300310B70DB7
:100E8000B80DB90DBA0DFF3E031D3E2F3A0883126F
:100E90000313A70083160313390883120313A60054
:100EA00083160313380883120313A5008316031354
:100EB000370883120313A4000A128A15D0260A12D7
:100EC0008A1183120313200883160313B2078312B7
:100ED000031321080318210F6E2F712F831603139C
:100EE000B3078312031322080318220F782F7B2FD6
:100EF00083160313B4078312031323080318230A6A
:100F000083160313B507350883120313BF00831636
:100F10000313340883120313BE008316031333082C
:100F200083120313BD0083160313320883120313C5
:100F3000BC000A128A154C250A128A118312031367
:100F40003C0883160313C000831203133D08831665
:100F50000313C100831203133E0883160313C20058
:100F6000243083120313CC007430CD004930CE00FE
:100F700083160313400883120313CF008316031351
:100F8000410883120313D00083160313420883120F
:100F90000313D1000A128A112A20831203134C086A
:100FA00083160313C000831203134D088316031323
:100FB000C100831203134E0883160313C2004008B6
:100FC00083120313E60083160313410883120313ED
:100FD000E70083160313420883120313E800080096
:100FE00083160313D901DA01DB01DC01DD01DE0127
:100FF000DF01E001E101E20183010A128A158E2D71
:10178200831603131115111D1419C42B0800831697
:1017920003131114111C1419CB2B0800F101F10AC7
:1017A20000300A128A15A32408000230F5007508D9
:1017B200F10000300A128A15A3240800C030F50097
:1017C2007508F10000300A128A15A3240800831656
:1017D20003131419E82B91161116111E1419EE2B6E
:1017E2000800F6007608F5007508F10001300A12CB
:1017F2008A15A3240800831603139115141CFF2BCA
:1018020091118312031313080800F1007108831267
:10181200031393008316031314180B2C11080800EA
:10182200F000701C182C8312031386160800831212
:10183200031386120800F000701C232C831203137A
:10184200061608008312031306120800F600760833
:101852008038F5007508F10000300A128A15A324B9
:101862000800831603131419322C111F08001115D6
:101872001119392C141D0800392C01300A128A154D
:1018820011240A128A156230F6006530F500F50B54
:10189200482CF60B482C4D2C3830F5007508F10019
:1018A20000300A128A15A3240A128A150630F5009E
:1018B2007508F10000300A128A15A3240A128A154B
:1018C2000C30F5007508F10000300A128A15A324C5
:1018D2000A128A150A128A15CF23080071087004A9
:1018E20003199C2CF501F50AF11B832C013003101E
:1018F200F00DF10DFF3E031D782C0130F400740849
:10190200F507752C71087302031D892C7008720289
:10191200031C912C7008F2027108031CF303F302FA
:1019220001300310F10CF00CFF3E031D922C01302C
:10193200F502031D832C7308F101F1077208F0010F
:10194200F0070800F40074080A128A151C240A120F
:101952008A1571080A128A1114200A128A15013096
:101962000A128A1511240A128A150730F3007D30F3
:10197200F200F20BBA2CF30BBA2C00300A128A15C1
:1019820011240A128A150D30F300FB30F200F20B1B
:10199200C82CF30BC82CCD2C00300A128A151C243B
:1019A2000A128A1500300A128A1114200800F8005F
:1019B200780884000A128A1103200A128A15003854
:1019C20003190800780884000A128A1103200A12F7
:1019D2008A150A3A0319F72C780884000A128A1128
:1019E20003200A128A150D3A031DFD2C0A128A15CC
:1019F200DF230A128A15092D780884000A128A1137
:101A020003200A128A150A128A15F2230A128A156B
:101A12000130F7007708F807D92CF501F6017108B3
:101A220070040319452DF701F70AF11B242D01302B
:101A32000310F00DF10DFF3E031D192D0130F400CE
:101A42007408F707162D01300310F50DF60DFF3E51
:101A5200031D252D71087302031D312D70087202BA
:101A6200031C3A2D7008F2027108031CF303F302FF
:101A7200751401300310F10CF00CFF3E031D3B2DD9
:101A82000130F702031D242D7608F101F1077508D4
:101A9200F001F007080083120313C5018E30C00065
:101AA2004008C400BF1F622DBC09BD09BE09BF09A1
:101AB200BC0A0319BD0A0319BE0A0319BF0AC501EC
:101AC200C50AFF303F050319742D01300310BF0C06
:101AD200BE0CBD0CBC0CFF3E031D672D0130C000C7
:101AE2004008C407622D3C08F0003D08F1003E08A2
:101AF200F2004408C0004008F3004508C100410854
:101B0200F4000A128A15DA25700883120313BC0046
:101B12007108BD007208BE0008008312031386011B
:101B22008701880103308316031386008801831618
:101B3200031789010A128A111A200A128A150A1237
:101B42008A153E240A128A150A128A15CF230A120E
:101B52008A150A128A15D6230A128A1501300A1228
:101B62008A15D8240A128A159A3083120313E600C2
:101B7200B930E7004230E8000A128A11E2200A1264
:101B82008A15831203130618CB2D0A128A11AC226E
:101B92000A128A15831203138618D42D0A128A1187
:101BA200AD230A128A150A128A155F270A128A15AC
:101BB200C22D73080319E22D720871047004031D0B
:101BC200F52D0030F0000030F1000030F200080086
:101BD2000130F5007508F30701300310F20CF10C27
:101BE200F00CFF3E031DEE2DFE3072050319102E80
:101BF200E92D0130F5007508F3070130F0070030D8
:101C020003180130F107003003180130F2070130E8
:101C12000310F20CF10CF00CFF3E031D092EFF30F5
:101C2200720503191F2EFA2D0130F3020130031041
:101C3200F00DF10DF20DFF3E031D182EF11F152EB2
:101C42007318292EFF30F0057F30F105FF30F205C1
:101C52000310F30C7308F500F601F70110300310BE
:101C6200F50DF60DF70DFF3E031D302E7508F0043D
:101C72007608F1047708F204740803190800F217D1
:101C82000800831203132808AC002908AD002A08B3
:101C9200AE0003102D0D2E0DAF002F08BB00BB08A8
:101CA200031D5C2E0030AB000030AA000030A900FA
:101CB2000030A80008002808AC002908AD002A0856
:101CC200AE0017300310AE0CAD0CAC0CFF3E031D82
:101CD200632E2C08AF002F08B600A917FF30A80505
:101CE200FF30A9050030AA052808B7002908B80066
:101CF2002A08B900BA018E30BB02BB1F9E2E3B08D8
:101D0200803A8F3E03188E2E0030AB000030AA00BE
:101D12000030A9000030A800080001300310BA0CFE
:101D2200B90CB80CB70CFF3E031D8F2E0130AC006E
:101D32002C08BB070319B92E8E2E18303B02031C48
:101D4200B62E0030AB000030AA000030A9000030EF
:101D5200A80008000130AC000310B70DB80DB90D92
:101D6200BA0DAC0BAD2E0130BB02BB08031DAB2E6E
:101D720036080319C72EB709B809B909BA09B70A4B
:101D82000319B80A0319B90A0319BA0A3A08AB00C7
:101D92003908AA003808A9003708A8000800F80185
:101DA20083120313A31FE22EA009A109A209A3090A
:101DB200A00A0319A10A0319A20A0319A30AF80126
:101DC200F80AA71FF32EA409A509A609A709A40AC0
:101DD2000319A50A0319A60A0319A70A0130F0007C
:101DE2007008F8060030FC000030FB000030FA00FA
:101DF2000030F90023082204210420040319482F8B
:101E0200F701F70AA31B132F0130F0000310A00DF6
:101E1200A10DA20DA30DF00B072F0130F0007008E9
:101E2200F707032F0130F0000310F90DFA0DFB0D37
:101E3200FC0DF00B152F23082702031D2A2F220861
:101E42002602031D2A2F21082502031D2A2F2008FE
:101E52002402031C3B2F2008A4022108031C210F8B
:101E6200A5022208031C220FA6022308031C230F2B
:101E7200A702791401300310A30CA20CA10CA00C30
:101E8200FF3E031D3C2F0130F702031D132F78087C
:101E92000319562FF909FA09FB09FC09F90A031972
:101EA200FA0A0319FB0A0319FC0A7C08A3007B083F
:101EB200A2007A08A1007908A00008008316031383
:101EC200D701D80105300A128A1527240A128A1569
:101ED2000A128A11D0260A128A158312031366087F
:101EE200A8006708A9006808AA000A128A154226F3
:101EF2000A128A1583120313290883160313C501D4
:101F0200C50783120313280883160313C401C407E9
:101F120003300A128A11BE210A128A150A128A1184
:101F2200D0260A128A158312031366088316031336
:101F3200A30083120313670883160313A4008312FA
:101F42000313680883160313A5000030A000203095
:101F5200A1004130A2000A128A11B7250A128A157D
:101F620083160313200883120313A8008316031396
:101F7200210883120313A900831603132208831274
:101F82000313AA000A128A1542260A128A1583121C
:101F92000313290883160313D801D80783120313E6
:101FA200280883160313D701D70709300A128A15A6
:101FB20027240A128A150A30F0000030F100831635
:101FC20003135808F301F3075708F201F2070A1244
:101FD2008A156F240A128A15710883160313D60113
:101FE200D6077008D501D5075608C501C50755089B
:0E1FF200C401C40701300A128A11BE21080082
:04400E00F2ECFFFFD2
:00000001FF
